:020000009C2A38
:10000800FF00030E8301EF000A088316C8008A0167
:1000180070088312A2007C08A1007D08A0008B1C38
:100028006129061E2528003083164706031D1E2851
:1000380001304606031D2528C00A0319C10AC60156
:10004800C7018312861A3828003083164506031D17
:100058002F2800304406031D3828C00A0319C10A96
:100068000130C4000030C5008312061F4928003043
:1000780083164306031D422801304206031D492802
:10008800C00A0319C10AC201C3018312861F5B2873
:10009800003083163F06031D532801303E06031D1A
:1000A8005B280130C002031CC103BE01BF018316D7
:1000B80000304106031D622808304006031D6628EB
:1000C800C001C10180304106F00080307002031D7C
:1000D8006F2800304002031875280830C00000302F
:1000E800C1001D29831208140730FC007D30FD0073
:1000F800FD0B7C28FC0B7C285E290530FC00DD30DC
:10010800FD008312FD0B8528FC0B852800000000EC
:1001180008140430FC003D30FD00FD0B9128FC0B59
:100128009128000000005E290A30FC00DD30FD0047
:100138008312FD0B9C28FC0B9C280000000008146F
:100148000430FC003D30FD00FD0BA828FC0BA8285E
:10015800000000005E290F30FC009B30FD00831278
:10016800FD0BB328FC0BB32808140430FC003D3009
:10017800FD00FD0BBD28FC0BBD28000000005E291A
:100188001430FC007930FD008312FD0BC828FC0BED
:10019800C8280000000008140430FC003D30FD00B1
:1001A800FD0BD428FC0BD428000000005E29193070
:1001B800FC005830FD008312FD0BDF28FC0BDF2804
:1001C800000008140430FC003D30FD00FD0BEA2857
:1001D800FC0BEA28000000005E291E30FC003730C6
:1001E800FD008312FD0BF528FC0BF52808140430DC
:1001F800FC003D30FD00FD0BFF28FC0BFF28000034
:1002080000005E292330FC001530FD008312FD0B31
:100218000A29FC0B0A290000000008140430FC001D
:100228003D30FD00FD0B1629FC0B162900000000CF
:100238005E29003083164106031D2429003040063C
:100248000319762800304106031D2C290130400689
:100258000319812800304106031D34290230400665
:100268000319982800304106031D3C290330400635
:100278000319AF2800304106031D44290430400605
:100288000319C42800304106031D4C2905304006D7
:100298000319DB2800304106031D542906304006A7
:1002A8000319F12800304106031D5C290730400678
:1002B80003190629831208108B102208F000210860
:1002C800FC002008FD00831648088A0083126F0E80
:0802D8008300FF0E7F0E0900F8
:0E02E000533083120313FD00FD0B7429080038
:1002EE00243083120313FC00B530FD00FD0B7D2975
:0A02FE00FC0B7D2900000000080041
:0C030800000000000000000000000800E1
:1003140083160313CF1B9129831288139329831205
:10032400881783164F1B9929831208139B2983125C
:1003340008178316CF1AA12983128812A3298312BE
:10034400881683164F1AA92983120812AB2983121F
:10035400081683164918B12983120815B329831284
:1003640008118815842188118316CF19BC2983129A
:100374008813BE298312881783164F19C429831240
:100384000813C629831208178316CF18CC298312A1
:100394008812CE298312881683164F18D429831203
:1003A4000812D6298312081683164918DC298312E9
:1003B4000815DE29831208118815842188118316F3
:0C03C400491CE6297721E7297021080078
:0E03D000831203136E088A006D088200080075
:1003DE008316031349104E08CF008A218316491441
:0203EE00080005
:1003F0000A2A803083160313CA001D2AC030CA009F
:100400001D2A9430CA001D2AD430CA001D2A80300B
:10041000CA001D2A831603134A08013A0319F92951
:100420004A08023A0319FE294A08033A0319012A25
:100430004A08043A0319042A072A4B03F0004A0821
:10044000F0077008CA007008CF008A21831649108F
:10045000CD014D084C07840000080319372A4D08C8
:100460004C0784000008CE00EF21CD0A292A491448
:02047000080082
:100472008B170B168316031301178312061008003D
:10048200E8218A110A128000840AED0A0319EE0A91
:08049200F003031D412A0800DC
:10049A008316031388110811081288120813881387
:1004AA0083128811081188130813881208127721F9
:1004BA0077217721881608168815842188117721D3
:1004CA00881584218811772188158421881177213C
:1004DA0008128815842188117721881584218811AA
:1004EA00881288178815842188117721881308169D
:1004FA00881584218811081288158421881177218A
:10050A008815842188110816881584218811772175
:10051A000812881584218811881708178816081662
:0E052A00881584218811772183164914080052
:100538000E244D228801FF308600831208103922CC
:100548000C308316CF008A214130FC00EE30FD00CC
:10055800FD0BAC2AFC0BAC2A000001308316CA0044
:100568000130CB00A030CC00F8210230CA000130A5
:10057800CB006530CC00F821C001C1018312061AF6
:10058800CA2A01308316C6000030C7008312861EAF
:10059800D02A8316C401C5018312061BD82A01304C
:1005A8008316C2000030C3008312861BE02A013084
:1005B8008316BE000030BF005A2B83160130CA00D4
:1005C8000930CB004F30CC00F8210230CA000B3084
:1005D800CB004A30CC00F8219B2B0130CA000930EF
:1005E800CB004430CC00F8210230CA000B30CB00DD
:1005F8006030CC00F8219B2B0130CA000930CB00B9
:100608005A30CC00F8210230CA000B30CB005530EC
:10061800CC00F8219B2B0130CA000930CB003330C5
:10062800CC00F8210230CA000B30CB002330CC00BC
:10063800F8219B2B0130CA000930CB002830CC00B0
:10064800F8210230CA000B30CB002E30CC00F82144
:100658009B2B0130CA000930CB003930CC00F8217F
:100668000230CA000B30CB003F30CC00F8219B2B66
:100678000130CA000930CB00A830CC00F821023084
:10068800CA000B30CB00B330CC00F8219B2B0130D3
:10069800CA000930CB00B830CC00F8210230CA00BB
:1006A8000B30CB00AE30CC00F8219B2B83160030EA
:1006B8004106031D612B003040060319E12A003072
:1006C8004106031D692B013040060319F12A003049
:1006D8004106031D712B023040060319002B003020
:1006E8004106031D792B0330400603190F2B0030F8
:1006F8004106031D812B0430400603191E2B0030D0
:100708004106031D892B0530400603192D2B0030A7
:100718004106031D912B0630400603193C2B00307F
:100728004106031D992B0730400603194B2B533004
:0A073800FD00FD0B9D2BC22AA02B33
:10081C00233084004A3083120313F000A630ED001D
:10082C000330EE004122A03084001E308312F00011
:0C083C00F030ED000330EE004122080017
:0A074C00333420346D34733400346C
:0C0756002034383436342E34343400346F
:0A076200343420346D347334003455
:0C076C002034363434342E343834003459
:0C0778003134303438342E343034003446
:0A078400353420346D347334003432
:0C078E002034323431342E343634003440
:0A079A00303420346D347334003421
:0C07A4002034203430342E343034003443
:0A07B000323420346D347334003409
:0C07BA002034343433342E343234003414
:0A07C600313420346D3473340034F4
:1007D0005434493445344D3450344F343A34003471
:1007E00041344E34473455344C344F343A34003469
:0C07F0003134323439342E3436340034C5
:0A07FC00373420346D3473340034B8
:0A080600363420346D3473340034AE
:0C0810003134353431342E3432340034AD
:02400E004A2F37
:00000001FF
