:1000000001308A00C22900000A108A100A118207F2
:1000100028340C34013406340A108A100A1182077D
:100020003134323433344134343435343634423478
:1000300037343834393443342A3430342334443474
:100040000C27F532F6372027F53665396F1D0A0083
:100050008A110A12D529423084008313000803193B
:100060003F280330F800F701F70B3428F80B33284A
:100070003C30F700F70B3A283D28800B3128080068
:10008000490EF039F7000F300805770488000000AA
:1000900008144A284B280000081008000808F70038
:1000A000080E0F39F8000800831608108810081190
:1000B000831288100F3083160805F03888008312E9
:1000C00008150000081400004E207808C900081028
:1000D000000008146B284E207808C80008100F3064
:1000E0008316080588008312490EF700F030F705E3
:1000F00077084804F8007808C800C81B5A28461C2E
:100100008810461888140000081100000810470ED7
:10011000C8000F30C8054808C900402047080F39FB
:10012000C800C900402008000F3083160805880069
:1001300008108810081183128810081108100F3059
:10014000C2002B200130BE003E08033C031CB22835
:100150000330C9004020C90140200530C2002B20D7
:10016000BE0AA4280230C9004020C9014020053041
:10017000C2002B20BE013E08033C031CC8283E08D9
:100180000420BF00C6013F08C7005420BE0ABB2898
:100190008A110A12D629BE01A00A2008213C0318A0
:1001A0002C292308FC3E0318EF28043E3329DE30B7
:1001B0008316860083128600EF28BE3083168600E1
:1001C00083128600EF287E30831686008312860015
:1001D000EF28FE308316860083128600EF28211C4C
:1001E000FB2806081E391E3C031DFA282110220890
:1001F000BE00A2012B2906081E391E3C0319262920
:1002000006080239031D0629BF011A290608043908
:10021000031D0D290130BF001A2906080839031DE6
:1002200014290230BF001A2906081039031D1A29A3
:100230000330BF003F0DF700F70DFC30F7057708DE
:1002400023070C20F800A20021142B29A30A23085D
:10025000043C0319A301A001FE308316860083121B
:100260003E08F80008000A148A100A118207D728ED
:10027000DD28E328E928430B3E2941294030C4000A
:100280004229C40101304202C40744088038C50035
:10029000C6014508C700542008004108073A031961
:1002A0005B290B3A03196029063A03196829023AB7
:1002B00003196E2973290130C200C3003B2179293B
:1002C000C6010130C70054200230C2002B2079291A
:1002D0000130C2000230C3003B217929C601103031
:1002E000C700542079290130C6004108C7005420B6
:1002F00079290800831603178C170C1400000000DE
:1003000083120C087F390319BE290313BE0003179B
:100310000D080313BF0003170F080313C0003E08A6
:10032000C1004D213F0803178D0003134008031738
:100330008F0083168C170C140000000083120C0D24
:100340000E0D7F390319BE290313BE0003170D08D4
:100350000313BF0003170F080313C0003E08C100BA
:100360004D213F0803178D000313400803178F002A
:100370008D0A03198F0A03137A29031703138A11AD
:100380000A12E729840183131F30830583161F1483
:100390009F141F159F1107309C008312A00121108C
:1003A000A201A301A401A501282894288316811382
:1003B0008312CB207808AA002A082A3C031D3E2A73
:1003C000203003178D0000308F0003137A29AB0112
:1003D0002B08083C031C062ACB207808AA00AA0890
:1003E000031DFC29CB207808AA002C302B078400A1
:1003F00083132A088000EF292C302B0784008313F5
:100400000008BE00C1004D21AB0AE829AB012B0852
:10041000083C031C3E2A2C302B0784008313000861
:10042000BE002B0803178D0003133E0803178C0032
:1004300083168C130C15831203130B08F7008B1310
:100440008316031755308D00AA308D008C148C183C
:10045000272A0C117708831203138B0435302B07DE
:10046000840083132B0803178D0083168C130C1440
:1004700083120C0880000313AB0A072AD9296300F2
:02400E00713F00
:00000001FF
;PIC16F877A
;CRC=DDA7  CREATED="10-nov-13 18:31"
