:1000000002308A00032A0000FF00030E8301A100D2
:100010000A08A0008A010408A2007708A300780853
:10002000A4007908A5007A08A600831383128B1D0B
:100030001B280B1830288B1E1F280B193328220869
:1000400084002308F7002408F8002508F900260892
:10005000FA0020088A00210E8300FF0E7F0E09009F
:100060008A110A127C288A110A12B8280A108A10EA
:100070000A11820728340C34013406340A108A101D
:100080000A118207D734EE34DE34BE34ED34DD3469
:10009000BD34EB34DB34BB34E734B73477347B34F2
:1000A0007D347E3480340A108A100A11820730347D
:1000B00031343234333434343534363437343834FC
:1000C00039344134423443344434453446343A308C
:1000D00084008313000803197B280330F800F7011C
:1000E000F70B7028F80B6F283C30F700F70B7628D9
:1000F0007928800B6D280800F03086000130AA00B6
:10010000FE30A800280886002808A9000310280D42
:10011000013EA800AA0A2A08043C031C93282908C7
:100120000602031982282908060203197C280608FA
:10013000A900AA012A083E2029020319A5282A0895
:100140000F3C031CA528AA0A9A282A08103C031968
:100150007C282A085320F800A9000130AB001E308B
:10016000BA006720F03086000B108A110A121F288F
:100170001B3081000B118A110A121F28C539F03279
:10018000F2302E172E00D03A65326510E53963390A
:10019000693169390000380EF039F7000F30080571
:1001A0007704880000000814D528D628000008101D
:1001B00008008810F03083168800831208150000AC
:1001C000081400000808080E0F39B80008100000D5
:1001D0000814EA280808080E0F39B7000810003084
:1001E000831688008312380EF700F030F705770881
:1001F0003704F8007808B700B71BDA28351C8810D8
:10020000351888140000081100000810360EB700D9
:100210000F30B7053708B800CB2036080F39B700C4
:10022000B800CB20080000308316880083128810A5
:1002300008110810A7018B1BA7178B130F30BA00EA
:100240006720A71B8B170130AC002C08033C031C54
:1002500037290330B800CB20A7018B1BA7178B13BE
:100260000530BA006720A71B8B17AC0A252902307E
:10027000B800CB20AC012C08033C031C48292C08F7
:100280003620AD00B5012D08B600D920AC0A3B29B7
:100290008A110A12102A30080C3A03195629063A14
:1002A00003196429023A03197A297F29B50101301B
:1002B000B600D920A7018B1BA7178B130230BA00F9
:1002C0006720A71B8B1784290130B1000230B200D0
:1002D000320B6B296E294030B3006F29B301013016
:1002E0003102B30733088038B400B5013408B600D2
:1002F000D9208429B5011030B600D92084290130D5
:10030000B5003008B600D92008000B08AC008B13EC
:10031000831603178C170C140000000083120C08BE
:100320007F390319CC290313AD0003170D080313FC
:10033000AE0003170F080313AF002D08B0004B21C8
:100340002E0803178D0003132F0803178F00831641
:100350008C170C140000000083120C0D0E0D7F3959
:100360000319CC290313AD0003170D080313AE00C6
:1003700003170F080313AF002D08B0004B212E0800
:1003800003178D0003132F0803178F008D0A03191D
:100390008F0A0313882903170313AC1B8B1708005C
:1003A000BE3003178D0000308F000313852102300B
:1003B000AC00A7018B1BA7178B13FA30BA0067207C
:1003C000A71B8B17AC0BD929F0308316860083123C
:1003D00086000C30B0004B21C33003178D00003075
:1003E0008F00031385210430AC00A7018B1BA717D6
:1003F0008B13FA30BA006720A71B8B17AC0BF529BB
:100400008A110A12112A03081F39830083161F1448
:100410009F141F159F1107309C008313831213290B
:10042000D029A7018B1BA7178B133230BA00672086
:08043000A71B8B17112A6300C2
:02400E00723FFF
:00000001FF
;PIC16F877A
;CRC=8931  CREATED="16-sep-14 09:56"
