:1000000002308A00F12A0000FF00030E8301A100E4
:100010000A08A0008A010408A2007708A300780853
:10002000A4007908A5007A08A600831383128C30F7
:100030008400801E1D288C1A2E2822088400230884
:10004000F7002408F8002508F9002608FA0020081F
:100050008A00210E8300FF0E7F0E09008A110A120A
:100060009D280A108A100A11820728340C340134A2
:1000700006340A108A100A118207313432343334BC
:1000800046343434353436344534373438343934FE
:10009000443441343034423443340A108A100A1153
:1000A0008207313400340A108A100A118207323470
:1000B00000344A08FA004908840083137A18831729
:1000C0000008CD004C08FA004B08840083137A180E
:1000D000831700084D02031D84284A08FA004908C6
:1000E000840083137A1883178008031D7A28003050
:1000F000F8009C284A08FA004908C90A0319CA0AE4
:10010000CB0A0319CC0A59284A08FA004908840086
:1001100083134A1883170008CD004C08FA004B08D7
:10012000840083134C18831700084D0203189A2883
:10013000FF309B280130F8000800C901CA013530A2
:1001400084008313490884074A084D208000003842
:100150000319AD28CA0AC90A9F28C901CA01383043
:1001600084008313490884074A085320800000381C
:100170000319BD28CA0AC90AAF282930840083138D
:100180008403840A8316861483128618C5280830CF
:10019000F700C901F717DA28F713DA2803108618D1
:1001A0000314C90C7717DA287713F70BCE28490800
:1001B000F800E6285030F71B1530F800F80BDE2861
:1001C0000000F71BCC28771BD428CE2878088000A5
:1001D0000D300002031DC1288001CA012930C90069
:1001E000CC013530CB005920F808031DFA282F1414
:1001F000AF140629CA012930C900CC013830CB0020
:100200005920F808031D06292F10AF108C128A11EF
:100210000A121D285039EF33F230ED30A024EE34AD
:10022000E33461326F0049376739E5396510433689
:10023000613B6505000041366139ED30A030633A1D
:10024000693B6100073083169C0005088500073074
:10025000F700F70B29292C2900001C0883120D1325
:1002600083169D018C16C03083128B048A110A12EA
:10027000152B413084008313000803194D290330E6
:10028000F800F701F70B4229F80B41293C30F70041
:10029000F70B48294B29800B3F290800470EF039FE
:1002A000F7000F300805770488000000081458296B
:1002B00059290000081008000808F700080E0F3937
:1002C000F80008008316081088100811831288109F
:1002D0000F3083160805F0388800831208150000D7
:1002E000081400005C217808C700081000000814FA
:1002F00079295C217808C60008100F30831608059C
:1003000088008312470EF700F030F705770846049F
:10031000F8007808C600C61B6829441C88104418D9
:1003200088140000081100000810450EC6000F30A8
:10033000C6054608C7004E2145080F39C600C7004C
:100340004E210800410BA529A8294030C200A92947
:10035000C20101304002C20742088038C300C40114
:100360004308C500622108003F08073A0319C22963
:100370000B3A0319C729063A0319CF29023A031980
:10038000D529DA290130C000C100A221DF29C4012A
:100390000130C50062210230C1003921DF2901305E
:1003A000C0000230C100A221DF29C4011030C50005
:1003B0006221DF290130C4003F08C5006221080026
:1003C0000B08BB008B13831603178C170C1400004B
:1003D000000083120C087F390319272A0313BC007D
:1003E00003170D080313BD0003170F080313BE0006
:1003F0003C08BF00B4213D0803178D0003133E08DD
:1004000003178F0083168C170C1400000000831252
:100410000C0D0E0D7F390319272A0313BC00031797
:100420000D080313BD0003170F080313BE003C089B
:10043000BF00B4213D0803178D0003133E080317C6
:100440008F008D0A03198F0A0313E329031703137F
:10045000BB1B8B1708000F30831608058800081097
:100460008810081183128810081108100F30C1007D
:1004700039210130BB003B08033C031C472A0330F1
:10048000C7004E210530C1003921BB0A3B2A02308A
:10049000C7004E210530C1003921BB013B08033C98
:1004A000031C5B2A3B083120BC00C4013C08C5008A
:1004B0006221BB0A4E2A0A3003178D0001308F00DB
:1004C0000313E0210230BB00FA30C1003921BB0B1D
:1004D000642A133003178D0001308F000313E021CD
:1004E0008A110A12162BB4012F143408043C031C81
:1004F000D82ABB01831681130F3086001030831277
:10050000BC00BF013F08033C031CC22A0130BD00F0
:10051000C0014008033C031CBB2A3C088600860936
:10052000000006080F39BE003E08F038FF3ABE0052
:100530003D083E02031DB72A1430C10039213F0D8A
:10054000F700F70DFC30F705770840073920F80071
:10055000BB003D083E02031DB62A640006080F39A1
:10056000BE003E08F038FF3ABE00A92ABB2A03109D
:10057000BD0DC00A892ABB08031DC22A0310BC0D89
:10058000BF0A822A8316811783123B08F800780875
:10059000AE00AF18D72A3030340784008313000828
:1005A000293C031DD52A003A031D2F10B40A752AD1
:1005B0002F1CEE2A0C30BF00B4211B3003178D0016
:1005C00001308F000313E0210230BB00FA30C1007C
:1005D0003921BB0BE62A0C30BF00B4218A110A1264
:1005E000172B03081F398300831606118312061583
:1005F0002F10AF10B40183161F149F141F159F11E5
:1006000007309C0083138312A701A801A901AA0146
:100610003130B0003330B1003530B2003730B30084
:10062000B501B601B801B90122292B2A732A162B6C
:02063000630065
:02400E00723FFF
:00000001FF
;PIC16F877A
;CRC=3ED2  CREATED="28-jun-14 19:23"
