:1000000001308A007529000037308400831300080E
:10001000031918280130F800F701F70B0D28F80B29
:100020000C284A30F700F70B13281628800B0A28F3
:100030000800BF010408BE003F10831B3F14B81F17
:100040002928BE173E1EBE0AB709B809B70A031908
:10005000B80A380EF038BA00BA07E23EBB00323EAA
:10006000BD0038080F39BB07BB07BD07E93EBC0020
:10007000BC07BC07370E0F39BC07BD07BC0DBD0D53
:10008000BD09BD0D37080F39BD07BA0D0730B900DE
:100090000A30BD07BC03031C4928BC07BB03031C73
:1000A0004D28BB07BA03031C5128BA07B903031C28
:1000B000552839308400831307303E053E138403EE
:1000C0003E05031D6A283E1A840A3E1A6A2820301B
:1000D000F700872884073D30040203193E17000803
:1000E000F700031D7B283E1B7B283E1A8B28BE1978
:1000F0007B2820308628BE1F83282D30F7008403FC
:100100003E13BE138728BE153E123030F70777081E
:100110000C1E88289900840A3E1F6B2808000030B6
:10012000F8001F08C73978049F000130B700042089
:100130001F151F199928A1011E08A0000130B70042
:1001400004202530B70004202008F800A901780811
:10015000A80073300C1EAA28990031300C1EAE285E
:1001600099003A300C1EB2289900103084002908FA
:10017000B8002808B700192020300C1EBD289900AF
:100180000D300C1EC12899000A30B7000420003041
:10019000F8001F08C73978049F000130B700042019
:1001A0001F151F19D128A3011E08A2000130B70096
:1001B00004202530B70004202208F800AB0178089D
:1001C000AA0073300C1EE228990032300C1EE6287B
:1001D00099003A300C1EEA289900023084002B085E
:1001E000B8002A08B700192020300C1EF528990005
:1001F0000D300C1EF92899000A30B7000420003099
:10020000F8001F08C73978049F000130B7000420A8
:100210001F151F190929A5011E08A4000130B700E8
:1002200004202530B70004202408F800AD01780828
:10023000AC0073300C1E1A29990033300C1E1E2995
:1002400099003A300C1E22299900023084002D08B2
:10025000B8002C08B700192020300C1E2D29990059
:100260000D300C1E312999000A30B70004200030EF
:10027000F8001F08C73978049F000130B700042038
:100280001F151F194129A7011E08A6000130B7003C
:1002900004202530B70004202608F800AF017808B4
:1002A000AE0073300C1E5229990034300C1E5629B2
:1002B00099003A300C1E5A299900023084002F0808
:1002C000B8002E08B700192020300C1E65299900AF
:1002D0000D300C1E692999000A30B70004200A303D
:1002E000B70004208A110A12A62903081F398300C7
:1002F000193083169900A630980090308312980028
:10030000FF30B40083161F149F141F159F11073070
:100310009C008313FF308500811738308600003041
:1003200087008312B400831688001F109F141F11CA
:100330009F111F1383121F179F1383169F1383127E
:100340001F14863083169D0083128F28A529630011
:02400E00713F00
:00000001FF
;PIC16F877A
;CRC=83A3  CREATED="01-jul-14 09:44"
