:1000000000308A0069280000FF00030E8301A10070
:100010000A08A0008A010408A2007708A300780853
:10002000A4007908A5007A08A600831383120B1E8A
:100030001B288B1830288B1E1F280B1933282208E9
:1000400084002308F7002408F8002508F900260892
:10005000FA0020088A00210E8300FF0E7F0E09009F
:100060008A110A1236288A110A12422827183B28B8
:1000700027148B163E2827108B1208108B108A111C
:100080000A121F281B308100A80A280F4A280130B5
:100090008806A8010B118A110A121F28FF30831647
:1000A0008600003088008312880127108A110A1206
:1000B000782883160108C03981001B308312810023
:1000C0008316011783120B16C0308B048A110A1293
:1000D000792803081F3983002710A80183161F14ED
:1000E0009F141F159F1107309C00831383124E2805
:0600F00059287928630085
:02400E00723FFF
:00000001FF
;PIC16F877A
;CRC=5D1B  CREATED="29-jun-14 00:38"
