:1000000000308A009B280000FF00030E8301A1003E
:100010000A08A0008A010408A2007708A300780853
:10002000A4007908A5007A08A600831383128C30F7
:100030008400801E1D288C1A2E2822088400230884
:10004000F7002408F8002508F9002608FA0020081F
:100050008A00210E8300FF0E7F0E09008A110A120A
:1000600037280A108A100A118207313400342E30E2
:10007000840083138403840A8C1E3C281808A7007C
:100080001A08F800A71C46281812181678088000CD
:100090000D300002031D3B28800135148C128A119B
:1000A0000A121D28003083168500880083128501FE
:1000B0008801B601B7013330840083133608840702
:1000C000370831208000003803196928B70AB60ABA
:1000D0005B2835108A110A12B728073083169C0056
:1000E000050885000730F700F70B74287728000013
:1000F0001C0883120D1383169D018C16C0308312C9
:100100008B048A110A12B828363084008313000841
:10011000031998280330F800F701F70B8D28F80B26
:100120008C283C30F700F70B93289628800B8A2800
:100130008A110A12BB2803081F398300A701403027
:1001400083169900A6309800903083129800831689
:100150001F149F141F159F1107309C0083138312D7
:10016000A801A901AE01AF01B301B40152286D2865
:0A0170000A30B6008428B8286300A6
:02400E003A3F37
:00000001FF
;PIC16F877A
;CRC=0B28  CREATED="29-jun-14 12:24"
