:1000000001308A00E3290000FF00030E8301A100F4
:100010000A08A0008A010408A2007708A300780853
:10002000A4007908A5007A08A600831383128C30F7
:100030008400801E1D288C1A2E2822088400230884
:10004000F7002408F8002508F9002608FA0020081F
:100050008A00210E8300FF0E7F0E09008A110A120A
:100060007F280A108A100A118207473400340A10C8
:100070008A100A118207433400340A108A100A11C8
:100080008207453400340A108A100A11820741346D
:1000900000340A108A100A118207493400340A1009
:1000A0008A100A118207483400340A108A100A1193
:1000B0008207443400340A108A100A118207463439
:1000C00000340A108A100A118207423400340A10E0
:1000D0008A100A1182074A3400340A108A100A1161
:1000E0008207313400340A108A100A118207323430
:1000F00000340A108A100A118207333400342E307B
:10010000840083138403840A8C1E84281808A700A3
:100110001A08F800A71C8E281812181678088000F4
:100120000D300002031D8328800156148C128A11A1
:100130000A121D285908FA005808840083137A18F7
:1001400083170008DC005B08FA005A088400831358
:100150007A18831700085C02031DC5285908FA00A5
:100160005808840083137A1883178008031DBB285E
:100170000030F800DD285908FA005808D80A031999
:10018000D90ADA0A0319DB0A9A285908FA0058082A
:1001900084008313591883170008DC005B08FA00F9
:1001A0005A08840083135B18831700085C02031845
:1001B000DB28FF30DC280130F800080058308400CC
:1001C000831300080319F2280330F800F701F70B36
:1001D000E728F80BE6283C30F700F70BED28F0286D
:1001E000800BE428080057145618FA280530D80068
:1001F000DE20F42888166430D800DE2088125610DD
:10020000D9012E30D800DB015030DA009A20F808EE
:10021000031D5710561810290530D800DE200A2972
:1002200088166430D800DE2088125610D9012E308E
:10023000D800DB015230DA009A20F808031D57106D
:10024000561826290530D800DE202029881664306B
:10025000D800DE2088125610D9012E30D800DB01DC
:100260005430DA009A20F808031D57101430D800D3
:10027000DE20571C4129881688156430D800DE20FE
:1002800088110800561CE029D9012E30D800DB0166
:100290003330DA009A20F808031D5429081464301A
:1002A000D800DE200810DF29D9012E30D800DB016C
:1002B0003D30DA009A20F808031D642908146430E0
:1002C000D800DE200810DF29D9012E30D800DB014C
:1002D0003530DA009A20F808031D74298814643038
:1002E000D800DE208810DF29D9012E30D800DB01AC
:1002F0003F30DA009A20F808031D842988146430FE
:10030000D800DE208810DF29D9012E30D800DB018B
:100310003730DA009A20F808031D94290815643054
:10032000D800DE200811DF29D9012E30D800DB01EA
:100330004130DA009A20F808031DA429081564301A
:10034000D800DE200811DF29D9012E30D800DB01CA
:100350003930DA009A20F808031DB629881664306F
:10036000D800DE2088125610F320DF29D9012E3064
:10037000D800DB014330DA009A20F808031DC929B0
:1003800088166430D800DE2088125610F3208812B8
:10039000DF29D9012E30D800DB013B30DA009A206A
:1003A000F808031DD5290816DF29D9012E30D800F9
:1003B000DB014530DA009A20F808031908125610BC
:1003C0008A110A12032B03081F398300A70140304A
:1003D00083169900A63098009030831298008316F7
:1003E0001F149F141F159F1107309C008313831245
:1003F000A801A901AE01AF01B301B401B501B60175
:10040000B701B801B901BA01BB01BC01BD01BE0110
:10041000BF01C001C101C201C301C401C501C601C0
:10042000D001D101D201D301D401D5010730831607
:100430009C00050885000730F700F70B1D2A202ACD
:1004400000001C0883120D1383169D018C16C0300A
:1004500083128B0400308316850088008312850187
:100460008801D701D80133308400831357088407EB
:1004700058083120800000380319412AD80AD70AC9
:10048000332AD701D80135308400831357088407F5
:1004900058083720800000380319512AD80AD70A93
:1004A000432AD701D80137308400831357088407C3
:1004B00058083D20800000380319612AD80AD70A5D
:1004C000532AD701D8013930840083135708840791
:1004D00058084320800000380319712AD80AD70A27
:1004E000632AD701D8013B3084008313570884075F
:1004F00058084920800000380319812AD80AD70AF1
:10050000732AD701D8013D3084008313570884072C
:1005100058084F20800000380319912AD80AD70ABA
:10052000832AD701D8013F308400831357088407FA
:1005300058085520800000380319A12AD80AD70A84
:10054000932AD701D80141308400831357088407C8
:1005500058085B20800000380319B12AD80AD70A4E
:10056000A32AD701D8014330840083135708840796
:1005700058086120800000380319C12AD80AD70A18
:10058000B32AD701D8014530840083135708840764
:1005900058086720800000380319D12AD80AD70AE2
:1005A000C32A5610D701D80150308400831357084E
:1005B000840758086D20800000380319E22AD80A01
:1005C000D70AD42AD701D8015230840083135708A0
:1005D000840758087320800000380319F22AD80ACB
:1005E000D70AE42AD701D80154308400831357086E
:1005F000840758087920800000380319022BD80A94
:10060000D70AF42A42290A30D800DE20022B6300E0
:02400E003A3F37
:00000001FF
;PIC16F877A
;CRC=490D  CREATED="03-jul-14 06:32"
