:1000000001308A00342900000A108A100A11820780
:1000100028340C34013406340A108A100A1182077D
:100020003134323433344634343435343634453470
:10003000373438343934443441343034423443343E
:100040002730840083130008031933280630F80092
:10005000F701F70B2928F80B28287B30F700F70B5E
:100060002F28800B26280800290EF039F7000F30C2
:10007000080577048800000008140230F700F70B29
:100080003F2842280000081008008810F03083162E
:100090008800831208150000081400000808080EE4
:1000A0000F39A9000810000008145628572800002E
:1000B0000808080E0F39A8000810003083168800C1
:1000C0008312290EF700F030F70577082804F800AE
:1000D0007808A800A81B4628261C88102618881413
:1000E0000000081100000810270EA8000F30A80516
:1000F0002808A900342027080F39A800A9003420B7
:100100000800003083168800831288100811081038
:100110000F30A70020200130A1002108033C031C60
:1001200099280330A90034200530A7002020A10A17
:100130008D280230A9003420A1012108033C031CB2
:10014000AA2821080420A200A6012208A700452011
:10015000A10A9D288A110A124129A101831681133F
:100160000F30860010308312A200A5012508033C41
:10017000031CF6280130A300A6012608033C031C3B
:10018000EF28220886008609000006080F39A4001F
:100190002408F038FF3AA40023082402031DEB28AA
:1001A0001430A7002020250DF700F70DFC30F705CF
:1001B000770826070C20F800A10023082402031D5D
:1001C000EA28640006080F39A4002408F038FF3A32
:1001D000A400DD28EF280310A30DA60ABD28A1085E
:1001E000031DF6280310A20DA50AB6288316811751
:1001F00083122108F8008A110A12422921080C3AB8
:1002000003190929063A03191129023A0319272962
:100210002C29A6010130A70045200230A70020208C
:1002200031290130A2000230A300230B18291B2919
:100230004030A4001C29A40101302202A407240894
:100240008038A500A6012508A70045203129A60170
:100250001030A700452031290130A6002108A70051
:1002600045208A110A124A2903081F398300831680
:100270001F149F141F159F1107309C0083138312B6
:100280008128AD287808A000A00803194A29200871
:0E029000A100FE281E30A70020204129630097
:02400E00723FFF
:00000001FF
;PIC16F877A
;CRC=66CB  CREATED="28-jun-14 19:33"
