:1000000000308A00B8280000FF00030E8301A10021
:100010000A08A0008A010408A2007708A300780853
:10002000A4007908A5007A08A600831383120B1E8A
:100030001B288B182C28220884002308F70024088A
:10004000F8002508F9002608FA0020088A00210E89
:100050008300FF0E7F0E09008A110A1281282D30BD
:10006000840083130008031943280330F800F701C4
:10007000F70B3828F80B37283C30F700F70B3E28F1
:100080004128800B352808002C08F83E03186E28FC
:10009000083E752808146E280130AD002F20081482
:1000A0006E280230AD002F2008146E280330AD00FA
:1000B0002F2008146E280430AD002F2008146E285D
:1000C0000530AD002F2008146E280630AD002F201B
:1000D00008146E280730AD002F2008140130AD0041
:1000E0002F2008108A110A1284280A108A100A1177
:1000F00082074A284C28512856285B286028652802
:100100006A282708AC0044288B108A110A121B2881
:10011000FF30831686000030880083128801023089
:10012000A7008A110A12C8280B168316011783121A
:100130008B15C0308B048A110A12C928861CA52889
:100140002908A8000130A900A8282908A800A901A9
:10015000A808031DB528290BB5282708063C031855
:10016000B328A701B5282A08A7078A110A12CC28A4
:1001700003081F398300A701A801A90183161F14D2
:100180009F141F159F1107309C008313831288282A
:0C01900094280130AA009E28C9286300B2
:02400E00723FFF
:00000001FF
;PIC16F877A
;CRC=8DA2  CREATED="28-jun-14 18:42"
