:1000000000308A0091280000FF00030E8301A10048
:100010000A08A0008A010408A2007708A300780853
:10002000A4007908A5007A08A600831383128B1D0B
:100030001B280B1834280B1E1F288B1837288B1EE3
:1000400023280B193A28220884002308F7002408E3
:10005000F8002508F9002608FA0020088A00210E79
:100060008300FF0E7F0E09008A110A1243288A11AD
:100070000A123D288A110A12522827188B168B1053
:100080008A110A122328061E4E2827184A282714E8
:1000900088144E2827108B12081088100B108A1114
:1000A0000A1223281B308100A80A280F5A28013081
:1000B0008806A8010B118A110A122328FF30831623
:1000C0008600003088008312880127108A110A12E6
:1000D000A02883160108C03981001B3083128100DB
:1000E0008316011783120B168B15C0308B048A11EF
:1000F0000A12A128293084008313000803198E28CE
:100100000330F800F701F70B8328F80B82283C3006
:10011000F700F70B89288C28800B80288A110A1297
:10012000A42803081F3983002710A80183161F1471
:100130009F141F159F1107309C00831383125E28A4
:0C01400069280A30A9007A28A128630071
:02400E00723FFF
:00000001FF
;PIC16F877A
;CRC=4E35  CREATED="29-jun-14 03:07"
