:1000000000308A0098280000FF00030E8301A10041
:100010000A08A0008A010408A2007708A300780853
:10002000A4007908A5007A08A600831383128B1D0B
:100030001B280B1834280B1E1F288B1837288B1EE3
:1000400023280B193A28220884002308F7002408E3
:10005000F8002508F9002608FA0020088A00210E79
:100060008300FF0E7F0E09008A110A1243288A11AD
:100070000A123D288A110A12522827188B168B1053
:100080008A110A122328061E4E2827184A282714E8
:1000900088144E2827108B12081088100B108A1114
:1000A0000A1223288101A80A0319A90A2808E73C93
:1000B000031D62282908073C031D622801308806B9
:1000C000A901A8010B118A110A122328FF308316F7
:1000D0008600003088008312880127108A110A12D6
:1000E000A82883160108C039810083128101831674
:1000F000011783120B168B15C0308B048A110A125C
:10010000A9282A3084008313000803199528033096
:10011000F800F701F70B8A28F80B89283C30F70024
:10012000F70B90289328800B87288A110A12AC2895
:1001300003081F3983002710A901A80183161F1483
:100140009F141F159F1107309C008313831266288C
:0C01500071280A30AA008128A928630049
:02400E00723FFF
:00000001FF
;PIC16F877A
;CRC=790C  CREATED="03-jul-14 03:02"
