:1000000001308A007D290000FF00030E8301A1005A
:100010000A08A0008A010408A2007708A300780853
:10002000A4007908A5007A08A600831383128C30F7
:100030008400801E1D288C1A2E2822088400230884
:10004000F7002408F8002508F9002608FA0020081F
:100050008A00210E8300FF0E7F0E09008A110A120A
:100060006D280A108A100A118207313400340A10F0
:100070008A100A118207333400340A108A100A11D8
:100080008207353400340A108A100A118207373487
:1000900000340A108A100A118207393400340A1019
:1000A0008A100A118207323400340A108A100A11A9
:1000B0008207343400340A108A100A118207363459
:1000C00000340A108A100A118207383400340A10EA
:1000D0008A100A118207413400342E3084008313C1
:1000E0008403840A8C1E72281808A7001A08F800D6
:1000F000A71C7C2818121816780880000D30000202
:10010000031D7128800147148C128A110A121D28C0
:100110004908FA004808840083137A1883170008F6
:10012000CC004B08FA004A08840083137A1883171E
:1001300000084C02031DB3284908FA00480884004F
:1001400083137A1883178008031DA9280030F8004C
:10015000CB284908FA004808C80A0319C90ACA0A7C
:100160000319CB0A88284908FA0048088400831339
:10017000491883170008CC004B08FA004A0884008D
:1001800083134B18831700084C020318C928FF304B
:10019000CA280130F80008004830840083130008A2
:1001A0000319E0280330F800F701F70BD528F80B06
:1001B000D4283C30F700F70BDB28DE28800BD22850
:1001C0000800471C7A29C9012E30C800CB01333002
:1001D000CA008820F808031DF32808146430C800FA
:1001E000CC2008107929C9012E30C800CB013D3040
:1001F000CA008820F808031D032908146430C800C9
:10020000CC2008107929C9012E30C800CB01353027
:10021000CA008820F808031D132988146430C80018
:10022000CC2088107929C9012E30C800CB013F307D
:10023000CA008820F808031D232988146430C800E8
:10024000CC2088107929C9012E30C800CB01373065
:10025000CA008820F808031D332908156430C80037
:10026000CC2008117929C9012E30C800CB014130BA
:10027000CA008820F808031D432908156430C80007
:10028000CC2008117929C9012E30C800CB013930A2
:10029000CA008820F808031D532988156430C80057
:1002A000CC2088117929C9012E30C800CB014330F8
:1002B000CA008820F808031D632988156430C80027
:1002C000CC2088117929C9012E30C800CB013B30E0
:1002D000CA008820F808031D6F2908167929C9016A
:1002E0002E30C800CB014530CA008820F808031919
:1002F000081247108A110A12672A03081F3983005F
:10030000A701403083169900A630980090308312E0
:10031000980083161F149F141F159F1107309C000F
:1003200083138312A801A901AE01AF01B301B40187
:10033000B501B601B701B801B901BA01BB01BC01F1
:10034000BD01BE01BF01C001C101C201C301C401A1
:10035000C501C601073083169C00050885000730DB
:10036000F700F70BB129B42900001C0883120D1304
:1003700083169D018C16C03083128B0400308316C7
:1003800085008800831285018801C801C9013330C6
:10039000840083134808840749083120800000380E
:1003A0000319D529C90AC80AC729C801C9013530A6
:1003B00084008313480884074908372080000038E8
:1003C0000319E529C90AC80AD729C801C901373064
:1003D000840083134808840749083D2080000038C2
:1003E0000319F529C90AC80AE729C801C901393022
:1003F000840083134808840749084320800000389C
:100400000319052AC90AC80AF729C801C9013B30DE
:100410008400831348088407490849208000003875
:100420000319152AC90AC80A072AC801C9013D309B
:10043000840083134808840749084F20800000384F
:100440000319252AC90AC80A172AC801C9013F3059
:100450008400831348088407490855208000003829
:100460000319352AC90AC80A272AC801C901413017
:10047000840083134808840749085B208000003803
:100480000319452AC90AC80A372AC801C9014330D5
:1004900084008313480884074908612080000038DD
:1004A0000319552AC90AC80A472AC801C901453093
:1004B00084008313480884074908672080000038B7
:1004C0000319652AC90AC80A572A4710E1280A30C1
:0804D000C800CC20662A63007D
:02400E003A3F37
:00000001FF
;PIC16F877A
;CRC=8F18  CREATED="28-jun-14 23:00"
