:10000000000004308A00A12C0A108A100A1182070D
:1000100028340C34013406340C2B3A1025330000FC
:100020003530840083130008031924280330F800B6
:10003000F701F70B1928F80B18283C30F700F70BDD
:100040001F282228800B162808003C0EF039F700E4
:100050000F30080577048800000008142F28302886
:100060000000081008008810F03083168800831202
:1000700008150000081400000808080E0F39BC001D
:1000800008100000081444280808080E0F39BB00A7
:10009000081000308316880083123C0EF700F03001
:1000A000F70577083B04F8007808BB00BB1B342831
:1000B000391C881039188814000008110000081035
:1000C0003A0EBB000F30BB053B08BC0025203A08A8
:1000D0000F39BB00BC0025200800003083168800C3
:1000E00083128810081108100F30B500102001305D
:1000F000A7002708033C031C85280330BC002520EB
:100100000530B5001020A70A79280230BC00252050
:10011000A7012708033C031C962827080420A800F1
:10012000B9012808BA003320A70A89288A110A12BF
:10013000C12C8E30F7002808F8002708F900FA01D2
:10014000F808031DAD287908F800F9010830F70216
:10015000F808031DAD28F701B5280310F81BB428D3
:10016000F90DF80DF703AD28F8138A110A12D82CEF
:10017000340803192829BC00380803192829BC07AA
:100180000318C9287F30BC02031C28290319282919
:10019000CD288130BC07031828293C08F700F80156
:1001A000F901FA013508C000C0173608BF0037084A
:1001B000BE001830BC00BD013E1CF6283B08FA0703
:1001C000031CE828F90A031DE828F80A0319BD17DB
:1001D0003A08F907031CEF28F80A0319BD17390874
:1001E000B600B6173608F8070318BD17BD0DF80C92
:1001F000F90CFA0CC00CBF0CBE0C0310BC0BDB28B6
:100200000130F70703182829F81B0D29C00DFA0D36
:10021000F90DF80DF70303192829C01F1E29FA0A42
:10022000031D1E29F90A031D1E29F80A031D1E2994
:10023000F80CF90CFA0CF70A031928293508BD0047
:100240003908BD06BD1F2629F8172C29F8132C29BB
:10025000F701F801F901FA0108002B080319F22946
:10026000B7002F080319F229B702031C3C297F307D
:10027000B7070318F22942298130B702031CF2297B
:100280000319F2293708F700F801F901FA01B6015C
:100290002C08B500B5172D08B4002E08B30019308E
:1002A000B7003208B302031865290130B4020318FD
:1002B0006529B50203186529B60203186529B60A2F
:1002C000B50AB40A3208B30797293108B4020318F3
:1002D00080290130B50203188029B602031880294D
:1002E000B60AB50A3108B4073208B307031C9729C8
:1002F000B40A031D9729B50A031D9729B60A972941
:1003000030088038B502031896290130B602031868
:100310009629B60A30088038B5073108B407031C9F
:100320007429B50A031D7429B60A74297A14B70B07
:100330009A29A5290310B30DB40DB50DB60D031000
:10034000FA0DF90DF80DB80D5129381CAD2903101F
:10035000F80CF90CFA0CB80CB029F7030319F229C0
:10036000B81BD9290310B30DB40DB50DB60D320865
:10037000B3020318C5290130B4020318C529B50218
:100380000318C529B602031CE8293108B402031872
:10039000D0290130B5020318D029B602031CE82980
:1003A00030088038B5020318D9290130B602031C81
:1003B000E829FA0A031DE829F90A031DE829F80AC1
:1003C000031DE829F70A0319F229F80CF90CFA0CB5
:1003D0002C08B7003008B706B71FF029F817F62920
:1003E000F813F629F701F801F901FA018A110A1246
:1003F0000A2D8E30F7002708F7022808F90029088F
:10040000F800F917F7080319102A0310F908031D5B
:100410000C2AF8080319102AF90CF80CF70B052A16
:10042000A81F172AF809F909F80A0319F90A8A1105
:100430000A121B2D3408B63CB400FA013508B80086
:10044000B5170310B50CB60CB70CFA0CF90CF80C78
:10045000F70CB40B212AB81F382AF709F809F90953
:10046000FA09F70A0319F80A0319F90A0319FA0A2B
:10047000080083183E2A3C3084008313F701F801FA
:10048000F901FA01BC01BD01BE01BF013B083A04FC
:100490003904380403197C2A2030C0000310B40D3D
:1004A000B50DB60DB70DBC0DBD0DBE0DBF0D3B0896
:1004B0003F02031D652A3A083E02031D652A3908DA
:1004C0003D02031D652A38083C02031C762A3808C1
:1004D000BC023908031C390FBD023A08031C3A0F4D
:1004E000BE023B08031C3B0FBF020314F70DF80DBF
:1004F000F90DFA0DC00B4E2A3C088000840A3D0815
:100500008000840A3E088000840A3F0880000800BA
:100510000408AC002B08AE000319A72A2A08B7006C
:100520002908B6002808B5002708B400BB01BA01A5
:100530002030B9008230B800B8207A08AA007908C3
:10054000A9007808A8007708A700AE0B8E2A2A0811
:10055000B7002908B6002808B5002708B4001A22F9
:100560007A08AA007908A9007808A8007708A700E7
:10057000AA1FC72AAC03AC16A709A809A909AA098A
:10058000A70A0319A80A0319A90A0319AA0A3B30E2
:10059000B3009A30B200CA30B100B0010A30AE00E8
:1005A0002B080319AC0A83142730840083132A080C
:1005B000B7002908B6002808B5002708B40033089A
:1005C000BB003208BA003108B9003008B80039223F
:1005D0007808F708031DFF2A2B0A2E020319FF2AA9
:1005E0002C080319012B0F392E020319F92A0318BD
:1005F000352BAC1B352B2C1B012B2030302B203006
:10060000AC05AC1E102BAC122B08031DAC037708F5
:10061000AC002D300C1E0A2B99002C08F700AC0101
:100620002B082E02031D1F2B7708AC002E300C1E4A
:10063000172B99002C08F7002030AC050030303023
:10064000AC1E302BAC122B08031DAC037708AC009A
:100650002D300C1E292B99002C08F700AC013030EE
:10066000F70777080C1E322B990083103308B70068
:100670003208B6003108B5003008B400BB01BA0139
:10068000B9010A30B80039227A08B3007908B200FB
:100690007808B1007708B000AE0BD32A8A110A128D
:1006A0002D2D34080C3A03195C2B063A0319642BE0
:1006B000023A03197B2B802BB9010130BA00332099
:1006C0000230B5001020852B0130B5000230B60095
:1006D000360B6B2B6E2B4030B7006F2BB701013000
:1006E0003502B70737088038B800B9013808BA00B2
:1006F00033200000852BB9011030BA003320852B40
:100700000130B9003408BA00332008000B08A800F3
:100710008B13831603178C170C14000000000318AA
:10072000B82B83120C087F390313A90003170D0897
:100730000313AA0003170F080313AB002908B40022
:1007400051232A0803178D0003132B0803178F006A
:1007500083168C170C140000000083120313A70BE0
:10076000B22BB52B83160317B82BD72B8316031781
:1007700083120C0D0E0D7F390313A90003170D080A
:100780000313AA0003170F080313AB002908B400D2
:1007900051232A0803178D0003132B0803178F001A
:1007A0008D0A03198F0A03100313A70B892BA81BAB
:1007B0008B178A110A12402D0408AC002B08AE00DA
:1007C0000319FB2B2A08B7002908B6002808B50032
:1007D0002708B400BB01BA012030B9008230B8004C
:1007E000B8207A08AA007908A9007808A800770834
:1007F000A700AE0BE22B2A08B7002908B60028088C
:10080000B5002708B4001A227A08AA007908A900BE
:100810007808A8007708A700AA1F1B2CAC03AC1609
:10082000A709A809A909AA09A70A0319A80A031967
:10083000A90A0319AA0A3B30B3009A30B200CA30A1
:10084000B100B0010A30AE002B080319AC0A8314C2
:100850002730840083132A08B7002908B600280827
:10086000B5002708B4003308BB003208BA003108CD
:10087000B9003008B80039227808F708031D532C56
:100880002B0A2E020319532C2C080319552C0F394F
:100890002E0203194D2C0318852CAC1B852C2C1B08
:1008A000552C2030812C2030AC05AC1E632CAC12B2
:1008B0002B08031DAC037708AC002D30B400512386
:1008C0002C08F700AC012B082E02031D712C7708B1
:1008D000AC002E30B40051232C08F7002030AC05BA
:1008E00000303030AC1E812CAC122B08031DAC0341
:1008F0007708AC002D30B40051232C08F700AC0170
:100900003030F7077708B400512383103308B7005D
:100910003208B6003108B5003008B400BB01BA0196
:10092000B9010A30B80039227A08B3007908B20058
:100930007808B1007708B000AE0B272C8A110A1294
:100940004D2D03081F398300403083169900A630CF
:10095000980090308312980083161F149F141F155F
:100960009F1107309C0083131F109F141F159F15A4
:100970001F1383121F139F1783169F1783121F14B1
:100980006D280030F8001F08C73978049F00103028
:10099000F700F70BC92C00001F151F19CD2C1E08DE
:1009A000FA0083161E088312A7001E08A8009928C3
:1009B0007A08A4007908A3007808A2007708A100AB
:1009C0001030F700F70BE22C00002408B7002308D2
:1009D000B6002208B5002108B400BB01BA012030DE
:1009E000B9008130B800B8207A08AA007908A900B7
:1009F0007808A8007708A7007A08AE007908AD004B
:100A00007808AC007708AB00B201B101B0018930C1
:100A1000AF002D297A08A4007908A3007808A20065
:100A20007708A1002408AA002308A9002208A8002A
:100A30002108A700F9297808A50030302507A6006D
:100A4000893084002408AA002308A9002208A800ED
:100A50002108A7000230AB00882A0D300C1E2E2D75
:100A600099001030F700F70B332D00000C300317FE
:100A70008D0000308F00031004300313A700862B75
:100A8000893084002408AA002308A9002208A800AD
:100A90002108A7000230AB00DC2B0230A700FA309F
:0C0AA000B5001020A70B4F2DC12C552DC8
:02400E003A373F
:00000001FF
;PIC16F877A
;CRC=A68D  CREATED="01-jul-14 11:21"
